0135T231380104121042882201810151120NCitadel           Wells Fargo        US     
100123138010412104288220181015201810151120IGA1      Contact Name  5558675552    
20012313801041210428822018101520181015B0        1   01                          
25      123456789 031300012             555888100001000001              GD1Y030B
261121042882201810151              938383            01   Test Payee     Y10    
2711A             00340                                 CD Addendum B           
2802121042882201810151              Y10A                   0                    
501031300012201810150000000000000000000000000000000000000         0             
52121042882201810151 1              Sec Orig Name   Sec Auth Name   SECURE          0                00000    0000001 
542202222222             10222222222222                                         
25      123456789 031300012             555888100001000001              GD1Y030B
261121042882201810151              938383            01   Test Payee     Y10    
2711A             00340                                 CD Addendum B           
2802121042882201810151              Y10A                   0                    
501031300012201810150000000000000000000000000000000000000         0             
52121042882201810151 1              Sec Orig Name   Sec Auth Name   SECURE          0                00000    0000001 
542202222222             10222222222222                                         
25      123456789 031300012             555888100001000001              GD1Y030B
261121042882201810151              938383            01   Test Payee     Y10    
2711A             00340                                 CD Addendum B           
2802121042882201810151              Y10A                   0                    
501031300012201810150000000000000000000000000000000000000         0             
52121042882201810151 1              Sec Orig Name   Sec Auth Name   SECURE          0                00000    0000001 
542202222222             10222222222222                                         
25      123456789 031300012             555888100001000001              GD1Y030B
261121042882201810151              938383            01   Test Payee     Y10    
2711A             00340                                 CD Addendum B           
2802121042882201810151              Y10A                   0                    
501031300012201810150000000000000000000000000000000000000         0             
52121042882201810151 1              Sec Orig Name   Sec Auth Name   SECURE          0                00000    0000001 
542202222222             10222222222222                                         
25      123456789 031300012             555888100001000001              GD1Y030B
261121042882201810151              938383            01   Test Payee     Y10    
2711A             00340                                 CD Addendum B           
2802121042882201810151              Y10A                   0                    
501031300012201810150000000000000000000000000000000000000         0             
52121042882201810151 1              Sec Orig Name   Sec Auth Name   SECURE          0                00000    0000001 
542202222222             10222222222222                                         
25      123456789 031300012             555888100001000001              GD1Y030B
261121042882201810151              938383            01   Test Payee     Y10    
2711A             00340                                 CD Addendum B           
2802121042882201810151              Y10A                   0                    
501031300012201810150000000000000000000000000000000000000         0             
52121042882201810151 1              Sec Orig Name   Sec Auth Name   SECURE          0                00000    0000001 
542202222222             10222222222222                                         
25      123456789 031300012             555888100001000001              GD1Y030B
261121042882201810151              938383            01   Test Payee     Y10    
2711A             00340                                 CD Addendum B           
2802121042882201810151              Y10A                   0                    
501031300012201810150000000000000000000000000000000000000         0             
52121042882201810151 1              Sec Orig Name   Sec Auth Name   SECURE          0                00000    0000001 
542202222222             10222222222222                                         
25      123456789 031300012             555888100001000001              GD1Y030B
261121042882201810151              938383            01   Test Payee     Y10    
2711A             00340                                 CD Addendum B           
2802121042882201810151              Y10A                   0                    
501031300012201810150000000000000000000000000000000000000         0             
52121042882201810151 1              Sec Orig Name   Sec Auth Name   SECURE          0                00000    0000001 
542202222222             10222222222222                                         
25      123456789 031300012             555888100001000001              GD1Y030B
261121042882201810151              938383            01   Test Payee     Y10    
2711A             00340                                 CD Addendum B           
2802121042882201810151              Y10A                   0                    
501031300012201810150000000000000000000000000000000000000         0             
52121042882201810151 1              Sec Orig Name   Sec Auth Name   SECURE          0                00000    0000001 
542202222222             10222222222222                                         
25      123456789 031300012             555888100001000001              GD1Y030B
261121042882201810151              938383            01   Test Payee     Y10    
2711A             00340                                 CD Addendum B           
2802121042882201810151              Y10A                   0                    
501031300012201810150000000000000000000000000000000000000         0             
52121042882201810151 1              Sec Orig Name   Sec Auth Name   SECURE          0                00000    0000001 
542202222222             10222222222222                                         
25      123456789 031300012             555888100001000001              GD1Y030B
261121042882201810151              938383            01   Test Payee     Y10    
2711A             00340                                 CD Addendum B           
2802121042882201810151              Y10A                   0                    
501031300012201810150000000000000000000000000000000000000         0             
52121042882201810151 1              Sec Orig Name   Sec Auth Name   SECURE          0                00000    0000001 
542202222222             10222222222222                                         
25      123456789 031300012             555888100001000001              GD1Y030B
261121042882201810151              938383            01   Test Payee     Y10    
2711A             00340                                 CD Addendum B           
2802121042882201810151              Y10A                   0                    
501031300012201810150000000000000000000000000000000000000         0             
52121042882201810151 1              Sec Orig Name   Sec Auth Name   SECURE          0                00000    0000001 
542202222222             10222222222222                                         
25      123456789 031300012             555888100001000001              GD1Y030B
261121042882201810151              938383            01   Test Payee     Y10    
2711A             00340                                 CD Addendum B           
2802121042882201810151              Y10A                   0                    
501031300012201810150000000000000000000000000000000000000         0             
52121042882201810151 1              Sec Orig Name   Sec Auth Name   SECURE          0                00000    0000001 
542202222222             10222222222222                                         
25      123456789 031300012             555888100001000001              GD1Y030B
261121042882201810151              938383            01   Test Payee     Y10    
2711A             00340                                 CD Addendum B           
2802121042882201810151              Y10A                   0                    
501031300012201810150000000000000000000000000000000000000         0             
52121042882201810151 1              Sec Orig Name   Sec Auth Name   SECURE          0                00000    0000001 
542202222222             10222222222222                                         
25      123456789 031300012             555888100001000001              GD1Y030B
261121042882201810151              938383            01   Test Payee     Y10    
2711A             00340                                 CD Addendum B           
2802121042882201810151              Y10A                   0                    
501031300012201810150000000000000000000000000000000000000         0             
52121042882201810151 1              Sec Orig Name   Sec Auth Name   SECURE          0                00000    0000001 
542202222222             10222222222222                                         
25      123456789 031300012             555888100001000001              GD1Y030B
261121042882201810151              938383            01   Test Payee     Y10    
2711A             00340                                 CD Addendum B           
2802121042882201810151              Y10A                   0                    
501031300012201810150000000000000000000000000000000000000         0             
52121042882201810151 1              Sec Orig Name   Sec Auth Name   SECURE          0                00000    0000001 
542202222222             10222222222222                                         
25      123456789 031300012             555888100001000001              GD1Y030B
261121042882201810151              938383            01   Test Payee     Y10    
2711A             00340                                 CD Addendum B           
2802121042882201810151              Y10A                   0                    
501031300012201810150000000000000000000000000000000000000         0             
52121042882201810151 1              Sec Orig Name   Sec Auth Name   SECURE          0                00000    0000001 
542202222222             10222222222222                                         
25      123456789 031300012             555888100001000001              GD1Y030B
261121042882201810151              938383            01   Test Payee     Y10    
2711A             00340                                 CD Addendum B           
2802121042882201810151              Y10A                   0                    
501031300012201810150000000000000000000000000000000000000         0             
52121042882201810151 1              Sec Orig Name   Sec Auth Name   SECURE          0                00000    0000001 
542202222222             10222222222222                                         
25      123456789 031300012             555888100001000001              GD1Y030B
261121042882201810151              938383            01   Test Payee     Y10    
2711A             00340                                 CD Addendum B           
2802121042882201810151              Y10A                   0                    
501031300012201810150000000000000000000000000000000000000         0             
52121042882201810151 1              Sec Orig Name   Sec Auth Name   SECURE          0                00000    0000001 
542202222222             10222222222222                                         
25      123456789 031300012             555888100001000001              GD1Y030B
261121042882201810151              938383            01   Test Payee     Y10    
2711A             00340                                 CD Addendum B           
2802121042882201810151              Y10A                   0                    
501031300012201810150000000000000000000000000000000000000         0             
52121042882201810151 1              Sec Orig Name   Sec Auth Name   SECURE          0                00000    0000001 
542202222222             10222222222222                                         
25      123456789 031300012             555888100001000001              GD1Y030B
261121042882201810151              938383            01   Test Payee     Y10    
2711A             00340                                 CD Addendum B           
2802121042882201810151              Y10A                   0                    
501031300012201810150000000000000000000000000000000000000         0             
52121042882201810151 1              Sec Orig Name   Sec Auth Name   SECURE          0                00000    0000001 
542202222222             10222222222222                                         
25      123456789 031300012             555888100001000001              GD1Y030B
261121042882201810151              938383            01   Test Payee     Y10    
2711A             00340                                 CD Addendum B           
2802121042882201810151              Y10A                   0                    
501031300012201810150000000000000000000000000000000000000         0             
52121042882201810151 1              Sec Orig Name   Sec Auth Name   SECURE          0                00000    0000001 
542202222222             10222222222222                                         
25      123456789 031300012             555888100001000001              GD1Y030B
261121042882201810151              938383            01   Test Payee     Y10    
2711A             00340                                 CD Addendum B           
2802121042882201810151              Y10A                   0                    
501031300012201810150000000000000000000000000000000000000         0             
52121042882201810151 1              Sec Orig Name   Sec Auth Name   SECURE          0                00000    0000001 
542202222222             10222222222222                                         
25      123456789 031300012             555888100001000001              GD1Y030B
261121042882201810151              938383            01   Test Payee     Y10    
2711A             00340                                 CD Addendum B           
2802121042882201810151              Y10A                   0                    
501031300012201810150000000000000000000000000000000000000         0             
52121042882201810151 1              Sec Orig Name   Sec Auth Name   SECURE          0                00000    0000001 
542202222222             10222222222222                                         
25      123456789 031300012             555888100001000001              GD1Y030B
261121042882201810151              938383            01   Test Payee     Y10    
2711A             00340                                 CD Addendum B           
2802121042882201810151              Y10A                   0                    
501031300012201810150000000000000000000000000000000000000         0             
52121042882201810151 1              Sec Orig Name   Sec Auth Name   SECURE          0                00000    0000001 
542202222222             10222222222222                                         
25      123456789 031300012             555888100001000001              GD1Y030B
261121042882201810151              938383            01   Test Payee     Y10    
2711A             00340                                 CD Addendum B           
2802121042882201810151              Y10A                   0                    
501031300012201810150000000000000000000000000000000000000         0             
52121042882201810151 1              Sec Orig Name   Sec Auth Name   SECURE          0                00000    0000001 
542202222222             10222222222222                                         
25      123456789 031300012             555888100001000001              GD1Y030B
261121042882201810151              938383            01   Test Payee     Y10    
2711A             00340                                 CD Addendum B           
2802121042882201810151              Y10A                   0                    
501031300012201810150000000000000000000000000000000000000         0             
52121042882201810151 1              Sec Orig Name   Sec Auth Name   SECURE          0                00000    0000001 
542202222222             10222222222222                                         
25      123456789 031300012             555888100001000001              GD1Y030B
261121042882201810151              938383            01   Test Payee     Y10    
2711A             00340                                 CD Addendum B           
2802121042882201810151              Y10A                   0                    
501031300012201810150000000000000000000000000000000000000         0             
52121042882201810151 1              Sec Orig Name   Sec Auth Name   SECURE          0                00000    0000001 
542202222222             10222222222222                                         
25      123456789 031300012             555888100001000001              GD1Y030B
261121042882201810151              938383            01   Test Payee     Y10    
2711A             00340                                 CD Addendum B           
2802121042882201810151              Y10A                   0                    
501031300012201810150000000000000000000000000000000000000         0             
52121042882201810151 1              Sec Orig Name   Sec Auth Name   SECURE          0                00000    0000001 
542202222222             10222222222222                                         
25      123456789 031300012             555888100001000001              GD1Y030B
261121042882201810151              938383            01   Test Payee     Y10    
2711A             00340                                 CD Addendum B           
2802121042882201810151              Y10A                   0                    
501031300012201810150000000000000000000000000000000000000         0             
52121042882201810151 1              Sec Orig Name   Sec Auth Name   SECURE          0                00000    0000001 
542202222222             10222222222222                                         
25      123456789 031300012             555888100001000001              GD1Y030B
261121042882201810151              938383            01   Test Payee     Y10    
2711A             00340                                 CD Addendum B           
2802121042882201810151              Y10A                   0                    
501031300012201810150000000000000000000000000000000000000         0             
52121042882201810151 1              Sec Orig Name   Sec Auth Name   SECURE          0                00000    0000001 
542202222222             10222222222222                                         
25      123456789 031300012             555888100001000001              GD1Y030B
261121042882201810151              938383            01   Test Payee     Y10    
2711A             00340                                 CD Addendum B           
2802121042882201810151              Y10A                   0                    
501031300012201810150000000000000000000000000000000000000         0             
52121042882201810151 1              Sec Orig Name   Sec Auth Name   SECURE          0                00000    0000001 
542202222222             10222222222222                                         
25      123456789 031300012             555888100001000001              GD1Y030B
261121042882201810151              938383            01   Test Payee     Y10    
2711A             00340                                 CD Addendum B           
2802121042882201810151              Y10A                   0                    
501031300012201810150000000000000000000000000000000000000         0             
52121042882201810151 1              Sec Orig Name   Sec Auth Name   SECURE          0                00000    0000001 
542202222222             10222222222222                                         
25      123456789 031300012             555888100001000001              GD1Y030B
261121042882201810151              938383            01   Test Payee     Y10    
2711A             00340                                 CD Addendum B           
2802121042882201810151              Y10A                   0                    
501031300012201810150000000000000000000000000000000000000         0             
52121042882201810151 1              Sec Orig Name   Sec Auth Name   SECURE          0                00000    0000001 
542202222222             10222222222222                                         
25      123456789 031300012             555888100001000001              GD1Y030B
261121042882201810151              938383            01   Test Payee     Y10    
2711A             00340                                 CD Addendum B           
2802121042882201810151              Y10A                   0                    
501031300012201810150000000000000000000000000000000000000         0             
52121042882201810151 1              Sec Orig Name   Sec Auth Name   SECURE          0                00000    0000001 
542202222222             10222222222222                                         
25      123456789 031300012             555888100001000001              GD1Y030B
261121042882201810151              938383            01   Test Payee     Y10    
2711A             00340                                 CD Addendum B           
2802121042882201810151              Y10A                   0                    
501031300012201810150000000000000000000000000000000000000         0             
52121042882201810151 1              Sec Orig Name   Sec Auth Name   SECURE          0                00000    0000001 
542202222222             10222222222222                                         
25      123456789 031300012             555888100001000001              GD1Y030B
261121042882201810151              938383            01   Test Payee     Y10    
2711A             00340                                 CD Addendum B           
2802121042882201810151              Y10A                   0                    
501031300012201810150000000000000000000000000000000000000         0             
52121042882201810151 1              Sec Orig Name   Sec Auth Name   SECURE          0                00000    0000001 
542202222222             10222222222222                                         
25      123456789 031300012             555888100001000001              GD1Y030B
261121042882201810151              938383            01   Test Payee     Y10    
2711A             00340                                 CD Addendum B           
2802121042882201810151              Y10A                   0                    
501031300012201810150000000000000000000000000000000000000         0             
52121042882201810151 1              Sec Orig Name   Sec Auth Name   SECURE          0                00000    0000001 
542202222222             10222222222222                                         
25      123456789 031300012             555888100001000001              GD1Y030B
261121042882201810151              938383            01   Test Payee     Y10    
2711A             00340                                 CD Addendum B           
2802121042882201810151              Y10A                   0                    
501031300012201810150000000000000000000000000000000000000         0             
52121042882201810151 1              Sec Orig Name   Sec Auth Name   SECURE          0                00000    0000001 
542202222222             10222222222222                                         
25      123456789 031300012             555888100001000001              GD1Y030B
261121042882201810151              938383            01   Test Payee     Y10    
2711A             00340                                 CD Addendum B           
2802121042882201810151              Y10A                   0                    
501031300012201810150000000000000000000000000000000000000         0             
52121042882201810151 1              Sec Orig Name   Sec Auth Name   SECURE          0                00000    0000001 
542202222222             10222222222222                                         
25      123456789 031300012             555888100001000001              GD1Y030B
261121042882201810151              938383            01   Test Payee     Y10    
2711A             00340                                 CD Addendum B           
2802121042882201810151              Y10A                   0                    
501031300012201810150000000000000000000000000000000000000         0             
52121042882201810151 1              Sec Orig Name   Sec Auth Name   SECURE          0                00000    0000001 
542202222222             10222222222222                                         
25      123456789 031300012             555888100001000001              GD1Y030B
261121042882201810151              938383            01   Test Payee     Y10    
2711A             00340                                 CD Addendum B           
2802121042882201810151              Y10A                   0                    
501031300012201810150000000000000000000000000000000000000         0             
52121042882201810151 1              Sec Orig Name   Sec Auth Name   SECURE          0                00000    0000001 
542202222222             10222222222222                                         
25      123456789 031300012             555888100001000001              GD1Y030B
261121042882201810151              938383            01   Test Payee     Y10    
2711A             00340                                 CD Addendum B           
2802121042882201810151              Y10A                   0                    
501031300012201810150000000000000000000000000000000000000         0             
52121042882201810151 1              Sec Orig Name   Sec Auth Name   SECURE          0                00000    0000001 
542202222222             10222222222222                                         
25      123456789 031300012             555888100001000001              GD1Y030B
261121042882201810151              938383            01   Test Payee     Y10    
2711A             00340                                 CD Addendum B           
2802121042882201810151              Y10A                   0                    
501031300012201810150000000000000000000000000000000000000         0             
52121042882201810151 1              Sec Orig Name   Sec Auth Name   SECURE          0                00000    0000001 
542202222222             10222222222222                                         
25      123456789 031300012             555888100001000001              GD1Y030B
261121042882201810151              938383            01   Test Payee     Y10    
2711A             00340                                 CD Addendum B           
2802121042882201810151              Y10A                   0                    
501031300012201810150000000000000000000000000000000000000         0             
52121042882201810151 1              Sec Orig Name   Sec Auth Name   SECURE          0                00000    0000001 
542202222222             10222222222222                                         
25      123456789 031300012             555888100001000001              GD1Y030B
261121042882201810151              938383            01   Test Payee     Y10    
2711A             00340                                 CD Addendum B           
2802121042882201810151              Y10A                   0                    
501031300012201810150000000000000000000000000000000000000         0             
52121042882201810151 1              Sec Orig Name   Sec Auth Name   SECURE          0                00000    0000001 
542202222222             10222222222222                                         
25      123456789 031300012             555888100001000001              GD1Y030B
261121042882201810151              938383            01   Test Payee     Y10    
2711A             00340                                 CD Addendum B           
2802121042882201810151              Y10A                   0                    
501031300012201810150000000000000000000000000000000000000         0             
52121042882201810151 1              Sec Orig Name   Sec Auth Name   SECURE          0                00000    0000001 
542202222222             10222222222222                                         
25      123456789 031300012             555888100001000001              GD1Y030B
261121042882201810151              938383            01   Test Payee     Y10    
2711A             00340                                 CD Addendum B           
2802121042882201810151              Y10A                   0                    
501031300012201810150000000000000000000000000000000000000         0             
52121042882201810151 1              Sec Orig Name   Sec Auth Name   SECURE          0                00000    0000001 
542202222222             10222222222222                                         
25      123456789 031300012             555888100001000001              GD1Y030B
261121042882201810151              938383            01   Test Payee     Y10    
2711A             00340                                 CD Addendum B           
2802121042882201810151              Y10A                   0                    
501031300012201810150000000000000000000000000000000000000         0             
52121042882201810151 1              Sec Orig Name   Sec Auth Name   SECURE          0                00000    0000001 
542202222222             10222222222222                                         
25      123456789 031300012             555888100001000001              GD1Y030B
261121042882201810151              938383            01   Test Payee     Y10    
2711A             00340                                 CD Addendum B           
2802121042882201810151              Y10A                   0                    
501031300012201810150000000000000000000000000000000000000         0             
52121042882201810151 1              Sec Orig Name   Sec Auth Name   SECURE          0                00000    0000001 
542202222222             10222222222222                                         
25      123456789 031300012             555888100001000001              GD1Y030B
261121042882201810151              938383            01   Test Payee     Y10    
2711A             00340                                 CD Addendum B           
2802121042882201810151              Y10A                   0                    
501031300012201810150000000000000000000000000000000000000         0             
52121042882201810151 1              Sec Orig Name   Sec Auth Name   SECURE          0                00000    0000001 
542202222222             10222222222222                                         
25      123456789 031300012             555888100001000001              GD1Y030B
261121042882201810151              938383            01   Test Payee     Y10    
2711A             00340                                 CD Addendum B           
2802121042882201810151              Y10A                   0                    
501031300012201810150000000000000000000000000000000000000         0             
52121042882201810151 1              Sec Orig Name   Sec Auth Name   SECURE          0                00000    0000001 
542202222222             10222222222222                                         
25      123456789 031300012             555888100001000001              GD1Y030B
261121042882201810151              938383            01   Test Payee     Y10    
2711A             00340                                 CD Addendum B           
2802121042882201810151              Y10A                   0                    
501031300012201810150000000000000000000000000000000000000         0             
52121042882201810151 1              Sec Orig Name   Sec Auth Name   SECURE          0                00000    0000001 
542202222222             10222222222222                                         
25      123456789 031300012             555888100001000001              GD1Y030B
261121042882201810151              938383            01   Test Payee     Y10    
2711A             00340                                 CD Addendum B           
2802121042882201810151              Y10A                   0                    
501031300012201810150000000000000000000000000000000000000         0             
52121042882201810151 1              Sec Orig Name   Sec Auth Name   SECURE          0                00000    0000001 
542202222222             10222222222222                                         
25      123456789 031300012             555888100001000001              GD1Y030B
261121042882201810151              938383            01   Test Payee     Y10    
2711A             00340                                 CD Addendum B           
2802121042882201810151              Y10A                   0                    
501031300012201810150000000000000000000000000000000000000         0             
52121042882201810151 1              Sec Orig Name   Sec Auth Name   SECURE          0                00000    0000001 
542202222222             10222222222222                                         
25      123456789 031300012             555888100001000001              GD1Y030B
261121042882201810151              938383            01   Test Payee     Y10    
2711A             00340                                 CD Addendum B           
2802121042882201810151              Y10A                   0                    
501031300012201810150000000000000000000000000000000000000         0             
52121042882201810151 1              Sec Orig Name   Sec Auth Name   SECURE          0                00000    0000001 
542202222222             10222222222222                                         
25      123456789 031300012             555888100001000001              GD1Y030B
261121042882201810151              938383            01   Test Payee     Y10    
2711A             00340                                 CD Addendum B           
2802121042882201810151              Y10A                   0                    
501031300012201810150000000000000000000000000000000000000         0             
52121042882201810151 1              Sec Orig Name   Sec Auth Name   SECURE          0                00000    0000001 
542202222222             10222222222222                                         
25      123456789 031300012             555888100001000001              GD1Y030B
261121042882201810151              938383            01   Test Payee     Y10    
2711A             00340                                 CD Addendum B           
2802121042882201810151              Y10A                   0                    
501031300012201810150000000000000000000000000000000000000         0             
52121042882201810151 1              Sec Orig Name   Sec Auth Name   SECURE          0                00000    0000001 
542202222222             10222222222222                                         
25      123456789 031300012             555888100001000001              GD1Y030B
261121042882201810151              938383            01   Test Payee     Y10    
2711A             00340                                 CD Addendum B           
2802121042882201810151              Y10A                   0                    
501031300012201810150000000000000000000000000000000000000         0             
52121042882201810151 1              Sec Orig Name   Sec Auth Name   SECURE          0                00000    0000001 
542202222222             10222222222222                                         
25      123456789 031300012             555888100001000001              GD1Y030B
261121042882201810151              938383            01   Test Payee     Y10    
2711A             00340                                 CD Addendum B           
2802121042882201810151              Y10A                   0                    
501031300012201810150000000000000000000000000000000000000         0             
52121042882201810151 1              Sec Orig Name   Sec Auth Name   SECURE          0                00000    0000001 
542202222222             10222222222222                                         
25      123456789 031300012             555888100001000001              GD1Y030B
261121042882201810151              938383            01   Test Payee     Y10    
2711A             00340                                 CD Addendum B           
2802121042882201810151              Y10A                   0                    
501031300012201810150000000000000000000000000000000000000         0             
52121042882201810151 1              Sec Orig Name   Sec Auth Name   SECURE          0                00000    0000001 
542202222222             10222222222222                                         
25      123456789 031300012             555888100001000001              GD1Y030B
261121042882201810151              938383            01   Test Payee     Y10    
2711A             00340                                 CD Addendum B           
2802121042882201810151              Y10A                   0                    
501031300012201810150000000000000000000000000000000000000         0             
52121042882201810151 1              Sec Orig Name   Sec Auth Name   SECURE          0                00000    0000001 
542202222222             10222222222222                                         
25      123456789 031300012             555888100001000001              GD1Y030B
261121042882201810151              938383            01   Test Payee     Y10    
2711A             00340                                 CD Addendum B           
2802121042882201810151              Y10A                   0                    
501031300012201810150000000000000000000000000000000000000         0             
52121042882201810151 1              Sec Orig Name   Sec Auth Name   SECURE          0                00000    0000001 
542202222222             10222222222222                                         
25      123456789 031300012             555888100001000001              GD1Y030B
261121042882201810151              938383            01   Test Payee     Y10    
2711A             00340                                 CD Addendum B           
2802121042882201810151              Y10A                   0                    
501031300012201810150000000000000000000000000000000000000         0             
52121042882201810151 1              Sec Orig Name   Sec Auth Name   SECURE          0                00000    0000001 
542202222222             10222222222222                                         
25      123456789 031300012             555888100001000001              GD1Y030B
261121042882201810151              938383            01   Test Payee     Y10    
2711A             00340                                 CD Addendum B           
2802121042882201810151              Y10A                   0                    
501031300012201810150000000000000000000000000000000000000         0             
52121042882201810151 1              Sec Orig Name   Sec Auth Name   SECURE          0                00000    0000001 
542202222222             10222222222222                                         
25      123456789 031300012             555888100001000001              GD1Y030B
261121042882201810151              938383            01   Test Payee     Y10    
2711A             00340                                 CD Addendum B           
2802121042882201810151              Y10A                   0                    
501031300012201810150000000000000000000000000000000000000         0             
52121042882201810151 1              Sec Orig Name   Sec Auth Name   SECURE          0                00000    0000001 
542202222222             10222222222222                                         
25      123456789 031300012             555888100001000001              GD1Y030B
261121042882201810151              938383            01   Test Payee     Y10    
2711A             00340                                 CD Addendum B           
2802121042882201810151              Y10A                   0                    
501031300012201810150000000000000000000000000000000000000         0             
52121042882201810151 1              Sec Orig Name   Sec Auth Name   SECURE          0                00000    0000001 
542202222222             10222222222222                                         
25      123456789 031300012             555888100001000001              GD1Y030B
261121042882201810151              938383            01   Test Payee     Y10    
2711A             00340                                 CD Addendum B           
2802121042882201810151              Y10A                   0                    
501031300012201810150000000000000000000000000000000000000         0             
52121042882201810151 1              Sec Orig Name   Sec Auth Name   SECURE          0                00000    0000001 
542202222222             10222222222222                                         
25      123456789 031300012             555888100001000001              GD1Y030B
261121042882201810151              938383            01   Test Payee     Y10    
2711A             00340                                 CD Addendum B           
2802121042882201810151              Y10A                   0                    
501031300012201810150000000000000000000000000000000000000         0             
52121042882201810151 1              Sec Orig Name   Sec Auth Name   SECURE          0                00000    0000001 
542202222222             10222222222222                                         
25      123456789 031300012             555888100001000001              GD1Y030B
261121042882201810151              938383            01   Test Payee     Y10    
2711A             00340                                 CD Addendum B           
2802121042882201810151              Y10A                   0                    
501031300012201810150000000000000000000000000000000000000         0             
52121042882201810151 1              Sec Orig Name   Sec Auth Name   SECURE          0                00000    0000001 
542202222222             10222222222222                                         
25      123456789 031300012             555888100001000001              GD1Y030B
261121042882201810151              938383            01   Test Payee     Y10    
2711A             00340                                 CD Addendum B           
2802121042882201810151              Y10A                   0                    
501031300012201810150000000000000000000000000000000000000         0             
52121042882201810151 1              Sec Orig Name   Sec Auth Name   SECURE          0                00000    0000001 
542202222222             10222222222222                                         
25      123456789 031300012             555888100001000001              GD1Y030B
261121042882201810151              938383            01   Test Payee     Y10    
2711A             00340                                 CD Addendum B           
2802121042882201810151              Y10A                   0                    
501031300012201810150000000000000000000000000000000000000         0             
52121042882201810151 1              Sec Orig Name   Sec Auth Name   SECURE          0                00000    0000001 
542202222222             10222222222222                                         
25      123456789 031300012             555888100001000001              GD1Y030B
261121042882201810151              938383            01   Test Payee     Y10    
2711A             00340                                 CD Addendum B           
2802121042882201810151              Y10A                   0                    
501031300012201810150000000000000000000000000000000000000         0             
52121042882201810151 1              Sec Orig Name   Sec Auth Name   SECURE          0                00000    0000001 
542202222222             10222222222222                                         
25      123456789 031300012             555888100001000001              GD1Y030B
261121042882201810151              938383            01   Test Payee     Y10    
2711A             00340                                 CD Addendum B           
2802121042882201810151              Y10A                   0                    
501031300012201810150000000000000000000000000000000000000         0             
52121042882201810151 1              Sec Orig Name   Sec Auth Name   SECURE          0                00000    0000001 
542202222222             10222222222222                                         
25      123456789 031300012             555888100001000001              GD1Y030B
261121042882201810151              938383            01   Test Payee     Y10    
2711A             00340                                 CD Addendum B           
2802121042882201810151              Y10A                   0                    
501031300012201810150000000000000000000000000000000000000         0             
52121042882201810151 1              Sec Orig Name   Sec Auth Name   SECURE          0                00000    0000001 
542202222222             10222222222222                                         
25      123456789 031300012             555888100001000001              GD1Y030B
261121042882201810151              938383            01   Test Payee     Y10    
2711A             00340                                 CD Addendum B           
2802121042882201810151              Y10A                   0                    
501031300012201810150000000000000000000000000000000000000         0             
52121042882201810151 1              Sec Orig Name   Sec Auth Name   SECURE          0                00000    0000001 
542202222222             10222222222222                                         
25      123456789 031300012             555888100001000001              GD1Y030B
261121042882201810151              938383            01   Test Payee     Y10    
2711A             00340                                 CD Addendum B           
2802121042882201810151              Y10A                   0                    
501031300012201810150000000000000000000000000000000000000         0             
52121042882201810151 1              Sec Orig Name   Sec Auth Name   SECURE          0                00000    0000001 
542202222222             10222222222222                                         
25      123456789 031300012             555888100001000001              GD1Y030B
261121042882201810151              938383            01   Test Payee     Y10    
2711A             00340                                 CD Addendum B           
2802121042882201810151              Y10A                   0                    
501031300012201810150000000000000000000000000000000000000         0             
52121042882201810151 1              Sec Orig Name   Sec Auth Name   SECURE          0                00000    0000001 
542202222222             10222222222222                                         
25      123456789 031300012             555888100001000001              GD1Y030B
261121042882201810151              938383            01   Test Payee     Y10    
2711A             00340                                 CD Addendum B           
2802121042882201810151              Y10A                   0                    
501031300012201810150000000000000000000000000000000000000         0             
52121042882201810151 1              Sec Orig Name   Sec Auth Name   SECURE          0                00000    0000001 
542202222222             10222222222222                                         
25      123456789 031300012             555888100001000001              GD1Y030B
261121042882201810151              938383            01   Test Payee     Y10    
2711A             00340                                 CD Addendum B           
2802121042882201810151              Y10A                   0                    
501031300012201810150000000000000000000000000000000000000         0             
52121042882201810151 1              Sec Orig Name   Sec Auth Name   SECURE          0                00000    0000001 
542202222222             10222222222222                                         
25      123456789 031300012             555888100001000001              GD1Y030B
261121042882201810151              938383            01   Test Payee     Y10    
2711A             00340                                 CD Addendum B           
2802121042882201810151              Y10A                   0                    
501031300012201810150000000000000000000000000000000000000         0             
52121042882201810151 1              Sec Orig Name   Sec Auth Name   SECURE          0                00000    0000001 
542202222222             10222222222222                                         
25      123456789 031300012             555888100001000001              GD1Y030B
261121042882201810151              938383            01   Test Payee     Y10    
2711A             00340                                 CD Addendum B           
2802121042882201810151              Y10A                   0                    
501031300012201810150000000000000000000000000000000000000         0             
52121042882201810151 1              Sec Orig Name   Sec Auth Name   SECURE          0                00000    0000001 
542202222222             10222222222222                                         
25      123456789 031300012             555888100001000001              GD1Y030B
261121042882201810151              938383            01   Test Payee     Y10    
2711A             00340                                 CD Addendum B           
2802121042882201810151              Y10A                   0                    
501031300012201810150000000000000000000000000000000000000         0             
52121042882201810151 1              Sec Orig Name   Sec Auth Name   SECURE          0                00000    0000001 
542202222222             10222222222222                                         
25      123456789 031300012             555888100001000001              GD1Y030B
261121042882201810151              938383            01   Test Payee     Y10    
2711A             00340                                 CD Addendum B           
2802121042882201810151              Y10A                   0                    
501031300012201810150000000000000000000000000000000000000         0             
52121042882201810151 1              Sec Orig Name   Sec Auth Name   SECURE          0                00000    0000001 
542202222222             10222222222222                                         
25      123456789 031300012             555888100001000001              GD1Y030B
261121042882201810151              938383            01   Test Payee     Y10    
2711A             00340                                 CD Addendum B           
2802121042882201810151              Y10A                   0                    
501031300012201810150000000000000000000000000000000000000         0             
52121042882201810151 1              Sec Orig Name   Sec Auth Name   SECURE          0                00000    0000001 
542202222222             10222222222222                                         
25      123456789 031300012             555888100001000001              GD1Y030B
261121042882201810151              938383            01   Test Payee     Y10    
2711A             00340                                 CD Addendum B           
2802121042882201810151              Y10A                   0                    
501031300012201810150000000000000000000000000000000000000         0             
52121042882201810151 1              Sec Orig Name   Sec Auth Name   SECURE          0                00000    0000001 
542202222222             10222222222222                                         
25      123456789 031300012             555888100001000001              GD1Y030B
261121042882201810151              938383            01   Test Payee     Y10    
2711A             00340                                 CD Addendum B           
2802121042882201810151              Y10A                   0                    
501031300012201810150000000000000000000000000000000000000         0             
52121042882201810151 1              Sec Orig Name   Sec Auth Name   SECURE          0                00000    0000001 
542202222222             10222222222222                                         
25      123456789 031300012             555888100001000001              GD1Y030B
261121042882201810151              938383            01   Test Payee     Y10    
2711A             00340                                 CD Addendum B           
2802121042882201810151              Y10A                   0                    
501031300012201810150000000000000000000000000000000000000         0             
52121042882201810151 1              Sec Orig Name   Sec Auth Name   SECURE          0                00000    0000001 
542202222222             10222222222222                                         
25      123456789 031300012             555888100001000001              GD1Y030B
261121042882201810151              938383            01   Test Payee     Y10    
2711A             00340                                 CD Addendum B           
2802121042882201810151              Y10A                   0                    
501031300012201810150000000000000000000000000000000000000         0             
52121042882201810151 1              Sec Orig Name   Sec Auth Name   SECURE          0                00000    0000001 
542202222222             10222222222222                                         
25      123456789 031300012             555888100001000001              GD1Y030B
261121042882201810151              938383            01   Test Payee     Y10    
2711A             00340                                 CD Addendum B           
2802121042882201810151              Y10A                   0                    
501031300012201810150000000000000000000000000000000000000         0             
52121042882201810151 1              Sec Orig Name   Sec Auth Name   SECURE          0                00000    0000001 
542202222222             10222222222222                                         
25      123456789 031300012             555888100001000001              GD1Y030B
261121042882201810151              938383            01   Test Payee     Y10    
2711A             00340                                 CD Addendum B           
2802121042882201810151              Y10A                   0                    
501031300012201810150000000000000000000000000000000000000         0             
52121042882201810151 1              Sec Orig Name   Sec Auth Name   SECURE          0                00000    0000001 
542202222222             10222222222222                                         
25      123456789 031300012             555888100001000001              GD1Y030B
261121042882201810151              938383            01   Test Payee     Y10    
2711A             00340                                 CD Addendum B           
2802121042882201810151              Y10A                   0                    
501031300012201810150000000000000000000000000000000000000         0             
52121042882201810151 1              Sec Orig Name   Sec Auth Name   SECURE          0                00000    0000001 
542202222222             10222222222222                                         
25      123456789 031300012             555888100001000001              GD1Y030B
261121042882201810151              938383            01   Test Payee     Y10    
2711A             00340                                 CD Addendum B           
2802121042882201810151              Y10A                   0                    
501031300012201810150000000000000000000000000000000000000         0             
52121042882201810151 1              Sec Orig Name   Sec Auth Name   SECURE          0                00000    0000001 
542202222222             10222222222222                                         
25      123456789 031300012             555888100001000001              GD1Y030B
261121042882201810151              938383            01   Test Payee     Y10    
2711A             00340                                 CD Addendum B           
2802121042882201810151              Y10A                   0                    
501031300012201810150000000000000000000000000000000000000         0             
52121042882201810151 1              Sec Orig Name   Sec Auth Name   SECURE          0                00000    0000001 
542202222222             10222222222222                                         
25      123456789 031300012             555888100001000001              GD1Y030B
261121042882201810151              938383            01   Test Payee     Y10    
2711A             00340                                 CD Addendum B           
2802121042882201810151              Y10A                   0                    
501031300012201810150000000000000000000000000000000000000         0             
52121042882201810151 1              Sec Orig Name   Sec Auth Name   SECURE          0                00000    0000001 
542202222222             10222222222222                                         
25      123456789 031300012             555888100001000001              GD1Y030B
261121042882201810151              938383            01   Test Payee     Y10    
2711A             00340                                 CD Addendum B           
2802121042882201810151              Y10A                   0                    
501031300012201810150000000000000000000000000000000000000         0             
52121042882201810151 1              Sec Orig Name   Sec Auth Name   SECURE          0                00000    0000001 
542202222222             10222222222222                                         
25      123456789 031300012             555888100001000001              GD1Y030B
261121042882201810151              938383            01   Test Payee     Y10    
2711A             00340                                 CD Addendum B           
2802121042882201810151              Y10A                   0                    
501031300012201810150000000000000000000000000000000000000         0             
52121042882201810151 1              Sec Orig Name   Sec Auth Name   SECURE          0                00000    0000001 
542202222222             10222222222222                                         
25      123456789 031300012             555888100001000001              GD1Y030B
261121042882201810151              938383            01   Test Payee     Y10    
2711A             00340                                 CD Addendum B           
2802121042882201810151              Y10A                   0                    
501031300012201810150000000000000000000000000000000000000         0             
52121042882201810151 1              Sec Orig Name   Sec Auth Name   SECURE          0                00000    0000001 
542202222222             10222222222222                                         
25      123456789 031300012             555888100001000001              GD1Y030B
261121042882201810151              938383            01   Test Payee     Y10    
2711A             00340                                 CD Addendum B           
2802121042882201810151              Y10A                   0                    
501031300012201810150000000000000000000000000000000000000         0             
52121042882201810151 1              Sec Orig Name   Sec Auth Name   SECURE          0                00000    0000001 
542202222222             10222222222222                                         
25      123456789 031300012             555888100001000001              GD1Y030B
261121042882201810151              938383            01   Test Payee     Y10    
2711A             00340                                 CD Addendum B           
2802121042882201810151              Y10A                   0                    
501031300012201810150000000000000000000000000000000000000         0             
52121042882201810151 1              Sec Orig Name   Sec Auth Name   SECURE          0                00000    0000001 
542202222222             10222222222222                                         
70070000001000000000001000000000100                    0                        
20012313801041210428822018101520181015B1        2   01                          
25      123456789 031300012             555888100001000001              GD1Y030B
261121042882201810151              938383            01   Test Payee     Y10    
2711A             00340                                 CD Addendum B           
2802121042882201810151              Y10A                   0                    
501031300012201810150000000000000000000000000000000000000         0             
52121042882201810151 1              Sec Orig Name   Sec Auth Name   SECURE          0                00000    0000001 
542202222222             10222222222222                                         
25      123456789 031300012             555888100001000001              GD1Y030B
261121042882201810151              938383            01   Test Payee     Y10    
2711A             00340                                 CD Addendum B           
2802121042882201810151              Y10A                   0                    
501031300012201810150000000000000000000000000000000000000         0             
52121042882201810151 1              Sec Orig Name   Sec Auth Name   SECURE          0                00000    0000001 
542202222222             10222222222222                                         
25      123456789 031300012             555888100001000001              GD1Y030B
261121042882201810151              938383            01   Test Payee     Y10    
2711A             00340                                 CD Addendum B           
2802121042882201810151              Y10A                   0                    
501031300012201810150000000000000000000000000000000000000         0             
52121042882201810151 1              Sec Orig Name   Sec Auth Name   SECURE          0                00000    0000001 
542202222222             10222222222222                                         
25      123456789 031300012             555888100001000001              GD1Y030B
261121042882201810151              938383            01   Test Payee     Y10    
2711A             00340                                 CD Addendum B           
2802121042882201810151              Y10A                   0                    
501031300012201810150000000000000000000000000000000000000         0             
52121042882201810151 1              Sec Orig Name   Sec Auth Name   SECURE          0                00000    0000001 
542202222222             10222222222222                                         
25      123456789 031300012             555888100001000001              GD1Y030B
261121042882201810151              938383            01   Test Payee     Y10    
2711A             00340                                 CD Addendum B           
2802121042882201810151              Y10A                   0                    
501031300012201810150000000000000000000000000000000000000         0             
52121042882201810151 1              Sec Orig Name   Sec Auth Name   SECURE          0                00000    0000001 
542202222222             10222222222222                                         
25      123456789 031300012             555888100001000001              GD1Y030B
261121042882201810151              938383            01   Test Payee     Y10    
2711A             00340                                 CD Addendum B           
2802121042882201810151              Y10A                   0                    
501031300012201810150000000000000000000000000000000000000         0             
52121042882201810151 1              Sec Orig Name   Sec Auth Name   SECURE          0                00000    0000001 
542202222222             10222222222222                                         
25      123456789 031300012             555888100001000001              GD1Y030B
261121042882201810151              938383            01   Test Payee     Y10    
2711A             00340                                 CD Addendum B           
2802121042882201810151              Y10A                   0                    
501031300012201810150000000000000000000000000000000000000         0             
52121042882201810151 1              Sec Orig Name   Sec Auth Name   SECURE          0                00000    0000001 
542202222222             10222222222222                                         
25      123456789 031300012             555888100001000001              GD1Y030B
261121042882201810151              938383            01   Test Payee     Y10    
2711A             00340                                 CD Addendum B           
2802121042882201810151              Y10A                   0                    
501031300012201810150000000000000000000000000000000000000         0             
52121042882201810151 1              Sec Orig Name   Sec Auth Name   SECURE          0                00000    0000001 
542202222222             10222222222222                                         
25      123456789 031300012             555888100001000001              GD1Y030B
261121042882201810151              938383            01   Test Payee     Y10    
2711A             00340                                 CD Addendum B           
2802121042882201810151              Y10A                   0                    
501031300012201810150000000000000000000000000000000000000         0             
52121042882201810151 1              Sec Orig Name   Sec Auth Name   SECURE          0                00000    0000001 
542202222222             10222222222222                                         
25      123456789 031300012             555888100001000001              GD1Y030B
261121042882201810151              938383            01   Test Payee     Y10    
2711A             00340                                 CD Addendum B           
2802121042882201810151              Y10A                   0                    
501031300012201810150000000000000000000000000000000000000         0             
52121042882201810151 1              Sec Orig Name   Sec Auth Name   SECURE          0                00000    0000001 
542202222222             10222222222222                                         
25      123456789 031300012             555888100001000001              GD1Y030B
261121042882201810151              938383            01   Test Payee     Y10    
2711A             00340                                 CD Addendum B           
2802121042882201810151              Y10A                   0                    
501031300012201810150000000000000000000000000000000000000         0             
52121042882201810151 1              Sec Orig Name   Sec Auth Name   SECURE          0                00000    0000001 
542202222222             10222222222222                                         
25      123456789 031300012             555888100001000001              GD1Y030B
261121042882201810151              938383            01   Test Payee     Y10    
2711A             00340                                 CD Addendum B           
2802121042882201810151              Y10A                   0                    
501031300012201810150000000000000000000000000000000000000         0             
52121042882201810151 1              Sec Orig Name   Sec Auth Name   SECURE          0                00000    0000001 
542202222222             10222222222222                                         
25      123456789 031300012             555888100001000001              GD1Y030B
261121042882201810151              938383            01   Test Payee     Y10    
2711A             00340                                 CD Addendum B           
2802121042882201810151              Y10A                   0                    
501031300012201810150000000000000000000000000000000000000         0             
52121042882201810151 1              Sec Orig Name   Sec Auth Name   SECURE          0                00000    0000001 
542202222222             10222222222222                                         
25      123456789 031300012             555888100001000001              GD1Y030B
261121042882201810151              938383            01   Test Payee     Y10    
2711A             00340                                 CD Addendum B           
2802121042882201810151              Y10A                   0                    
501031300012201810150000000000000000000000000000000000000         0             
52121042882201810151 1              Sec Orig Name   Sec Auth Name   SECURE          0                00000    0000001 
542202222222             10222222222222                                         
25      123456789 031300012             555888100001000001              GD1Y030B
261121042882201810151              938383            01   Test Payee     Y10    
2711A             00340                                 CD Addendum B           
2802121042882201810151              Y10A                   0                    
501031300012201810150000000000000000000000000000000000000         0             
52121042882201810151 1              Sec Orig Name   Sec Auth Name   SECURE          0                00000    0000001 
542202222222             10222222222222                                         
25      123456789 031300012             555888100001000001              GD1Y030B
261121042882201810151              938383            01   Test Payee     Y10    
2711A             00340                                 CD Addendum B           
2802121042882201810151              Y10A                   0                    
501031300012201810150000000000000000000000000000000000000         0             
52121042882201810151 1              Sec Orig Name   Sec Auth Name   SECURE          0                00000    0000001 
542202222222             10222222222222                                         
25      123456789 031300012             555888100001000001              GD1Y030B
261121042882201810151              938383            01   Test Payee     Y10    
2711A             00340                                 CD Addendum B           
2802121042882201810151              Y10A                   0                    
501031300012201810150000000000000000000000000000000000000         0             
52121042882201810151 1              Sec Orig Name   Sec Auth Name   SECURE          0                00000    0000001 
542202222222             10222222222222                                         
25      123456789 031300012             555888100001000001              GD1Y030B
261121042882201810151              938383            01   Test Payee     Y10    
2711A             00340                                 CD Addendum B           
2802121042882201810151              Y10A                   0                    
501031300012201810150000000000000000000000000000000000000         0             
52121042882201810151 1              Sec Orig Name   Sec Auth Name   SECURE          0                00000    0000001 
542202222222             10222222222222                                         
25      123456789 031300012             555888100001000001              GD1Y030B
261121042882201810151              938383            01   Test Payee     Y10    
2711A             00340                                 CD Addendum B           
2802121042882201810151              Y10A                   0                    
501031300012201810150000000000000000000000000000000000000         0             
52121042882201810151 1              Sec Orig Name   Sec Auth Name   SECURE          0                00000    0000001 
542202222222             10222222222222                                         
25      123456789 031300012             555888100001000001              GD1Y030B
261121042882201810151              938383            01   Test Payee     Y10    
2711A             00340                                 CD Addendum B           
2802121042882201810151              Y10A                   0                    
501031300012201810150000000000000000000000000000000000000         0             
52121042882201810151 1              Sec Orig Name   Sec Auth Name   SECURE          0                00000    0000001 
542202222222             10222222222222                                         
25      123456789 031300012             555888100001000001              GD1Y030B
261121042882201810151              938383            01   Test Payee     Y10    
2711A             00340                                 CD Addendum B           
2802121042882201810151              Y10A                   0                    
501031300012201810150000000000000000000000000000000000000         0             
52121042882201810151 1              Sec Orig Name   Sec Auth Name   SECURE          0                00000    0000001 
542202222222             10222222222222                                         
25      123456789 031300012             555888100001000001              GD1Y030B
261121042882201810151              938383            01   Test Payee     Y10    
2711A             00340                                 CD Addendum B           
2802121042882201810151              Y10A                   0                    
501031300012201810150000000000000000000000000000000000000         0             
52121042882201810151 1              Sec Orig Name   Sec Auth Name   SECURE          0                00000    0000001 
542202222222             10222222222222                                         
25      123456789 031300012             555888100001000001              GD1Y030B
261121042882201810151              938383            01   Test Payee     Y10    
2711A             00340                                 CD Addendum B           
2802121042882201810151              Y10A                   0                    
501031300012201810150000000000000000000000000000000000000         0             
52121042882201810151 1              Sec Orig Name   Sec Auth Name   SECURE          0                00000    0000001 
542202222222             10222222222222                                         
25      123456789 031300012             555888100001000001              GD1Y030B
261121042882201810151              938383            01   Test Payee     Y10    
2711A             00340                                 CD Addendum B           
2802121042882201810151              Y10A                   0                    
501031300012201810150000000000000000000000000000000000000         0             
52121042882201810151 1              Sec Orig Name   Sec Auth Name   SECURE          0                00000    0000001 
542202222222             10222222222222                                         
25      123456789 031300012             555888100001000001              GD1Y030B
261121042882201810151              938383            01   Test Payee     Y10    
2711A             00340                                 CD Addendum B           
2802121042882201810151              Y10A                   0                    
501031300012201810150000000000000000000000000000000000000         0             
52121042882201810151 1              Sec Orig Name   Sec Auth Name   SECURE          0                00000    0000001 
542202222222             10222222222222                                         
25      123456789 031300012             555888100001000001              GD1Y030B
261121042882201810151              938383            01   Test Payee     Y10    
2711A             00340                                 CD Addendum B           
2802121042882201810151              Y10A                   0                    
501031300012201810150000000000000000000000000000000000000         0             
52121042882201810151 1              Sec Orig Name   Sec Auth Name   SECURE          0                00000    0000001 
542202222222             10222222222222                                         
25      123456789 031300012             555888100001000001              GD1Y030B
261121042882201810151              938383            01   Test Payee     Y10    
2711A             00340                                 CD Addendum B           
2802121042882201810151              Y10A                   0                    
501031300012201810150000000000000000000000000000000000000         0             
52121042882201810151 1              Sec Orig Name   Sec Auth Name   SECURE          0                00000    0000001 
542202222222             10222222222222                                         
25      123456789 031300012             555888100001000001              GD1Y030B
261121042882201810151              938383            01   Test Payee     Y10    
2711A             00340                                 CD Addendum B           
2802121042882201810151              Y10A                   0                    
501031300012201810150000000000000000000000000000000000000         0             
52121042882201810151 1              Sec Orig Name   Sec Auth Name   SECURE          0                00000    0000001 
542202222222             10222222222222                                         
25      123456789 031300012             555888100001000001              GD1Y030B
261121042882201810151              938383            01   Test Payee     Y10    
2711A             00340                                 CD Addendum B           
2802121042882201810151              Y10A                   0                    
501031300012201810150000000000000000000000000000000000000         0             
52121042882201810151 1              Sec Orig Name   Sec Auth Name   SECURE          0                00000    0000001 
542202222222             10222222222222                                         
25      123456789 031300012             555888100001000001              GD1Y030B
261121042882201810151              938383            01   Test Payee     Y10    
2711A             00340                                 CD Addendum B           
2802121042882201810151              Y10A                   0                    
501031300012201810150000000000000000000000000000000000000         0             
52121042882201810151 1              Sec Orig Name   Sec Auth Name   SECURE          0                00000    0000001 
542202222222             10222222222222                                         
25      123456789 031300012             555888100001000001              GD1Y030B
261121042882201810151              938383            01   Test Payee     Y10    
2711A             00340                                 CD Addendum B           
2802121042882201810151              Y10A                   0                    
501031300012201810150000000000000000000000000000000000000         0             
52121042882201810151 1              Sec Orig Name   Sec Auth Name   SECURE          0                00000    0000001 
542202222222             10222222222222                                         
25      123456789 031300012             555888100001000001              GD1Y030B
261121042882201810151              938383            01   Test Payee     Y10    
2711A             00340                                 CD Addendum B           
2802121042882201810151              Y10A                   0                    
501031300012201810150000000000000000000000000000000000000         0             
52121042882201810151 1              Sec Orig Name   Sec Auth Name   SECURE          0                00000    0000001 
542202222222             10222222222222                                         
25      123456789 031300012             555888100001000001              GD1Y030B
261121042882201810151              938383            01   Test Payee     Y10    
2711A             00340                                 CD Addendum B           
2802121042882201810151              Y10A                   0                    
501031300012201810150000000000000000000000000000000000000         0             
52121042882201810151 1              Sec Orig Name   Sec Auth Name   SECURE          0                00000    0000001 
542202222222             10222222222222                                         
25      123456789 031300012             555888100001000001              GD1Y030B
261121042882201810151              938383            01   Test Payee     Y10    
2711A             00340                                 CD Addendum B           
2802121042882201810151              Y10A                   0                    
501031300012201810150000000000000000000000000000000000000         0             
52121042882201810151 1              Sec Orig Name   Sec Auth Name   SECURE          0                00000    0000001 
542202222222             10222222222222                                         
25      123456789 031300012             555888100001000001              GD1Y030B
261121042882201810151              938383            01   Test Payee     Y10    
2711A             00340                                 CD Addendum B           
2802121042882201810151              Y10A                   0                    
501031300012201810150000000000000000000000000000000000000         0             
52121042882201810151 1              Sec Orig Name   Sec Auth Name   SECURE          0                00000    0000001 
542202222222             10222222222222                                         
25      123456789 031300012             555888100001000001              GD1Y030B
261121042882201810151              938383            01   Test Payee     Y10    
2711A             00340                                 CD Addendum B           
2802121042882201810151              Y10A                   0                    
501031300012201810150000000000000000000000000000000000000         0             
52121042882201810151 1              Sec Orig Name   Sec Auth Name   SECURE          0                00000    0000001 
542202222222             10222222222222                                         
25      123456789 031300012             555888100001000001              GD1Y030B
261121042882201810151              938383            01   Test Payee     Y10    
2711A             00340                                 CD Addendum B           
2802121042882201810151              Y10A                   0                    
501031300012201810150000000000000000000000000000000000000         0             
52121042882201810151 1              Sec Orig Name   Sec Auth Name   SECURE          0                00000    0000001 
542202222222             10222222222222                                         
25      123456789 031300012             555888100001000001              GD1Y030B
261121042882201810151              938383            01   Test Payee     Y10    
2711A             00340                                 CD Addendum B           
2802121042882201810151              Y10A                   0                    
501031300012201810150000000000000000000000000000000000000         0             
52121042882201810151 1              Sec Orig Name   Sec Auth Name   SECURE          0                00000    0000001 
542202222222             10222222222222                                         
25      123456789 031300012             555888100001000001              GD1Y030B
261121042882201810151              938383            01   Test Payee     Y10    
2711A             00340                                 CD Addendum B           
2802121042882201810151              Y10A                   0                    
501031300012201810150000000000000000000000000000000000000         0             
52121042882201810151 1              Sec Orig Name   Sec Auth Name   SECURE          0                00000    0000001 
542202222222             10222222222222                                         
25      123456789 031300012             555888100001000001              GD1Y030B
261121042882201810151              938383            01   Test Payee     Y10    
2711A             00340                                 CD Addendum B           
2802121042882201810151              Y10A                   0                    
501031300012201810150000000000000000000000000000000000000         0             
52121042882201810151 1              Sec Orig Name   Sec Auth Name   SECURE          0                00000    0000001 
542202222222             10222222222222                                         
25      123456789 031300012             555888100001000001              GD1Y030B
261121042882201810151              938383            01   Test Payee     Y10    
2711A             00340                                 CD Addendum B           
2802121042882201810151              Y10A                   0                    
501031300012201810150000000000000000000000000000000000000         0             
52121042882201810151 1              Sec Orig Name   Sec Auth Name   SECURE          0                00000    0000001 
542202222222             10222222222222                                         
25      123456789 031300012             555888100001000001              GD1Y030B
261121042882201810151              938383            01   Test Payee     Y10    
2711A             00340                                 CD Addendum B           
2802121042882201810151              Y10A                   0                    
501031300012201810150000000000000000000000000000000000000         0             
52121042882201810151 1              Sec Orig Name   Sec Auth Name   SECURE          0                00000    0000001 
542202222222             10222222222222                                         
25      123456789 031300012             555888100001000001              GD1Y030B
261121042882201810151              938383            01   Test Payee     Y10    
2711A             00340                                 CD Addendum B           
2802121042882201810151              Y10A                   0                    
501031300012201810150000000000000000000000000000000000000         0             
52121042882201810151 1              Sec Orig Name   Sec Auth Name   SECURE          0                00000    0000001 
542202222222             10222222222222                                         
25      123456789 031300012             555888100001000001              GD1Y030B
261121042882201810151              938383            01   Test Payee     Y10    
2711A             00340                                 CD Addendum B           
2802121042882201810151              Y10A                   0                    
501031300012201810150000000000000000000000000000000000000         0             
52121042882201810151 1              Sec Orig Name   Sec Auth Name   SECURE          0                00000    0000001 
542202222222             10222222222222                                         
25      123456789 031300012             555888100001000001              GD1Y030B
261121042882201810151              938383            01   Test Payee     Y10    
2711A             00340                                 CD Addendum B           
2802121042882201810151              Y10A                   0                    
501031300012201810150000000000000000000000000000000000000         0             
52121042882201810151 1              Sec Orig Name   Sec Auth Name   SECURE          0                00000    0000001 
542202222222             10222222222222                                         
25      123456789 031300012             555888100001000001              GD1Y030B
261121042882201810151              938383            01   Test Payee     Y10    
2711A             00340                                 CD Addendum B           
2802121042882201810151              Y10A                   0                    
501031300012201810150000000000000000000000000000000000000         0             
52121042882201810151 1              Sec Orig Name   Sec Auth Name   SECURE          0                00000    0000001 
542202222222             10222222222222                                         
25      123456789 031300012             555888100001000001              GD1Y030B
261121042882201810151              938383            01   Test Payee     Y10    
2711A             00340                                 CD Addendum B           
2802121042882201810151              Y10A                   0                    
501031300012201810150000000000000000000000000000000000000         0             
52121042882201810151 1              Sec Orig Name   Sec Auth Name   SECURE          0                00000    0000001 
542202222222             10222222222222                                         
25      123456789 031300012             555888100001000001              GD1Y030B
261121042882201810151              938383            01   Test Payee     Y10    
2711A             00340                                 CD Addendum B           
2802121042882201810151              Y10A                   0                    
501031300012201810150000000000000000000000000000000000000         0             
52121042882201810151 1              Sec Orig Name   Sec Auth Name   SECURE          0                00000    0000001 
542202222222             10222222222222                                         
25      123456789 031300012             555888100001000001              GD1Y030B
261121042882201810151              938383            01   Test Payee     Y10    
2711A             00340                                 CD Addendum B           
2802121042882201810151              Y10A                   0                    
501031300012201810150000000000000000000000000000000000000         0             
52121042882201810151 1              Sec Orig Name   Sec Auth Name   SECURE          0                00000    0000001 
542202222222             10222222222222                                         
25      123456789 031300012             555888100001000001              GD1Y030B
261121042882201810151              938383            01   Test Payee     Y10    
2711A             00340                                 CD Addendum B           
2802121042882201810151              Y10A                   0                    
501031300012201810150000000000000000000000000000000000000         0             
52121042882201810151 1              Sec Orig Name   Sec Auth Name   SECURE          0                00000    0000001 
542202222222             10222222222222                                         
25      123456789 031300012             555888100001000001              GD1Y030B
261121042882201810151              938383            01   Test Payee     Y10    
2711A             00340                                 CD Addendum B           
2802121042882201810151              Y10A                   0                    
501031300012201810150000000000000000000000000000000000000         0             
52121042882201810151 1              Sec Orig Name   Sec Auth Name   SECURE          0                00000    0000001 
542202222222             10222222222222                                         
25      123456789 031300012             555888100001000001              GD1Y030B
261121042882201810151              938383            01   Test Payee     Y10    
2711A             00340                                 CD Addendum B           
2802121042882201810151              Y10A                   0                    
501031300012201810150000000000000000000000000000000000000         0             
52121042882201810151 1              Sec Orig Name   Sec Auth Name   SECURE          0                00000    0000001 
542202222222             10222222222222                                         
25      123456789 031300012             555888100001000001              GD1Y030B
261121042882201810151              938383            01   Test Payee     Y10    
2711A             00340                                 CD Addendum B           
2802121042882201810151              Y10A                   0                    
501031300012201810150000000000000000000000000000000000000         0             
52121042882201810151 1              Sec Orig Name   Sec Auth Name   SECURE          0                00000    0000001 
542202222222             10222222222222                                         
25      123456789 031300012             555888100001000001              GD1Y030B
261121042882201810151              938383            01   Test Payee     Y10    
2711A             00340                                 CD Addendum B           
2802121042882201810151              Y10A                   0                    
501031300012201810150000000000000000000000000000000000000         0             
52121042882201810151 1              Sec Orig Name   Sec Auth Name   SECURE          0                00000    0000001 
542202222222             10222222222222                                         
25      123456789 031300012             555888100001000001              GD1Y030B
261121042882201810151              938383            01   Test Payee     Y10    
2711A             00340                                 CD Addendum B           
2802121042882201810151              Y10A                   0                    
501031300012201810150000000000000000000000000000000000000         0             
52121042882201810151 1              Sec Orig Name   Sec Auth Name   SECURE          0                00000    0000001 
542202222222             10222222222222                                         
25      123456789 031300012             555888100001000001              GD1Y030B
261121042882201810151              938383            01   Test Payee     Y10    
2711A             00340                                 CD Addendum B           
2802121042882201810151              Y10A                   0                    
501031300012201810150000000000000000000000000000000000000         0             
52121042882201810151 1              Sec Orig Name   Sec Auth Name   SECURE          0                00000    0000001 
542202222222             10222222222222                                         
25      123456789 031300012             555888100001000001              GD1Y030B
261121042882201810151              938383            01   Test Payee     Y10    
2711A             00340                                 CD Addendum B           
2802121042882201810151              Y10A                   0                    
501031300012201810150000000000000000000000000000000000000         0             
52121042882201810151 1              Sec Orig Name   Sec Auth Name   SECURE          0                00000    0000001 
542202222222             10222222222222                                         
25      123456789 031300012             555888100001000001              GD1Y030B
261121042882201810151              938383            01   Test Payee     Y10    
2711A             00340                                 CD Addendum B           
2802121042882201810151              Y10A                   0                    
501031300012201810150000000000000000000000000000000000000         0             
52121042882201810151 1              Sec Orig Name   Sec Auth Name   SECURE          0                00000    0000001 
542202222222             10222222222222                                         
25      123456789 031300012             555888100001000001              GD1Y030B
261121042882201810151              938383            01   Test Payee     Y10    
2711A             00340                                 CD Addendum B           
2802121042882201810151              Y10A                   0                    
501031300012201810150000000000000000000000000000000000000         0             
52121042882201810151 1              Sec Orig Name   Sec Auth Name   SECURE          0                00000    0000001 
542202222222             10222222222222                                         
25      123456789 031300012             555888100001000001              GD1Y030B
261121042882201810151              938383            01   Test Payee     Y10    
2711A             00340                                 CD Addendum B           
2802121042882201810151              Y10A                   0                    
501031300012201810150000000000000000000000000000000000000         0             
52121042882201810151 1              Sec Orig Name   Sec Auth Name   SECURE          0                00000    0000001 
542202222222             10222222222222                                         
25      123456789 031300012             555888100001000001              GD1Y030B
261121042882201810151              938383            01   Test Payee     Y10    
2711A             00340                                 CD Addendum B           
2802121042882201810151              Y10A                   0                    
501031300012201810150000000000000000000000000000000000000         0             
52121042882201810151 1              Sec Orig Name   Sec Auth Name   SECURE          0                00000    0000001 
542202222222             10222222222222                                         
25      123456789 031300012             555888100001000001              GD1Y030B
261121042882201810151              938383            01   Test Payee     Y10    
2711A             00340                                 CD Addendum B           
2802121042882201810151              Y10A                   0                    
501031300012201810150000000000000000000000000000000000000         0             
52121042882201810151 1              Sec Orig Name   Sec Auth Name   SECURE          0                00000    0000001 
542202222222             10222222222222                                         
25      123456789 031300012             555888100001000001              GD1Y030B
261121042882201810151              938383            01   Test Payee     Y10    
2711A             00340                                 CD Addendum B           
2802121042882201810151              Y10A                   0                    
501031300012201810150000000000000000000000000000000000000         0             
52121042882201810151 1              Sec Orig Name   Sec Auth Name   SECURE          0                00000    0000001 
542202222222             10222222222222                                         
25      123456789 031300012             555888100001000001              GD1Y030B
261121042882201810151              938383            01   Test Payee     Y10    
2711A             00340                                 CD Addendum B           
2802121042882201810151              Y10A                   0                    
501031300012201810150000000000000000000000000000000000000         0             
52121042882201810151 1              Sec Orig Name   Sec Auth Name   SECURE          0                00000    0000001 
542202222222             10222222222222                                         
25      123456789 031300012             555888100001000001              GD1Y030B
261121042882201810151              938383            01   Test Payee     Y10    
2711A             00340                                 CD Addendum B           
2802121042882201810151              Y10A                   0                    
