0135T231380104121042882201810032219NCitadel           Wells Fargo        US     
100123138010412104288220181003201810032219IGA1      Contact Name  5558675552    
200123138010412104288220181003201810039999      1   01                          
25      123456789 031300012             555888100001000001              GD1Y030B       
501031300012201810030000000000000000000000000000000000000         0             
52121042882201810031 1              Sec Orig Name   Sec Auth Name   SECURE          0                00000    000001 
542202222222             10222222222222                                         
25      123456789 031300012             555888100001000002              GD1Y030B
262121042882201810032              938383            01   Test Payee     Y10    
27      11A             00340                                 CD Addendum B     